:020000040000FA
:040000000EEF00F00F
:020004000000FA
:020006001000E8
:04000800E2EF00F033
:0400180003EF00F002
:04001C00720ED36E1F
:100020000F0EC16E938094809482948496909290E7
:100030009292929492969298959095929594959684
:1000400089908992899489968D90000E206ED08E29
:10005000CD6ACD88CD8ACE6ACF6ACD809E6A9D80DA
:100060009F80F28CF28EF28C2050000AD8B454EFAC
:1000700000F02050010AD8B463EF00F02050020ACB
:10008000D8B470EF00F02050030AD8B47FEF00F02E
:100090002050040AD8B48FEF00F02050050AD8B4DD
:1000A0009BEF00F034EF00F0898089928994899861
:1000B00089968D9082B05FEF00F034EF00F0010E72
:1000C000206E34EF00F0899089828994899889960E
:1000D0008D9081B034EF00F0020E206E34EF00F00E
:1000E000899089928984899889968D90ACEC00F0EA
:1000F00082A234EF00F0030E206E34EF00F08990FE
:1001000089928984899889968D80D5EC00F082A4A3
:1001100034EF00F08D90040E206E34EF00F08990E3
:1001200089928994898889968D90CEEC00F0050E8D
:10013000206E34EF00F0899089928994899889869D
:100140008D90BDEC00F082A2A8EF00F034EF00F03B
:10015000000E206E34EF00F0F10E8C6ED5EC00F046
:10016000F40E8C6ED5EC00F0F20E8C6ED5EC00F037
:10017000F80E8C6ED5EC00F01200080E8C6ED5ECEB
:1001800000F0020E8C6ED5EC00F0040E8C6ED5ECF7
:1001900000F0010E8C6ED5EC00F01200216A2150A7
:1001A000160AD8A4CFEF00F012001F0E406E4F0EBB
:1001B000416E00000000412ED9EF00F0402ED7EF35
:0401C00000F0120039
:0C01C400226ED8CF23F0E0CF24F09EA0E4
:1001D000ECEF00F0212A9E9024C0E0FF23C0D8FF5E
:0401E0002250110098
:020000040030CA
:0100000000FF
:0100010008F6
:0100020000FD
:0100030000FC
:0100050000FA
:010006008079
:0100080000F7
:0100090000F6
:01000A0000F5
:01000B0000F4
:01000C0000F3
:01000D0000F2
:00000001FF
