:020000040000FA
:040000000EEF00F00F
:020004000000FA
:020006001000E8
:0400080088EF00F08D
:0400180003EF00F002
:04001C000F0EC16E94
:1000200093809480948294849590929092929294EA
:100030009296000E206ED08ECD6ACD88CD8ACE6A83
:10004000CF6ACD809E6A9D809F80F28CF28EF28C6A
:100050002050000AD8B448EF00F02050010AD8B46C
:1000600053EF00F02050020AD8B45BEF00F02050AC
:10007000030AD8B463EF00F02050040AD8B46CEF40
:1000800000F02050050AD8B474EF00F028EF00F01B
:10009000808082B24EEF00F028EF00F0010E206E5B
:1000A000809028EF00F0808281B028EF00F0020EEF
:1000B000206E28EF00F082A428EF00F0030E206EDF
:1000C000838028EF00F082A028EF00F08390040ED8
:1000D000206E809228EF00F0808681EC00F0809600
:1000E000050E206E28EF00F0808482A47AEF00F0E5
:1000F00028EF00F0000E206E809428EF00F0120030
:100100001200216A2150200AD8A482EF00F01200C8
:10011000226ED8CF23F0E0CF24F09EA092EF00F023
:10012000212A9E9024C0E0FF23C0D8FF2250110056
:020000040030CA
:0100000000FF
:010001000BF3
:0100020000FD
:0100030000FC
:0100050000FA
:010006008079
:0100080000F7
:0100090000F6
:01000A0000F5
:01000B0000F4
:01000C0000F3
:01000D0000F2
:00000001FF
