:020000040000FA
:040000000EEF00F00F
:020004000000FA
:020006001000E8
:04000800DCEF00F039
:0400180003EF00F002
:04001C000F0EC16E94
:1000200093809480948294849690929092929294E9
:1000300092969590959295949596899089928994A7
:1000400089968D90000E206ED08ECD6ACD88CD8A97
:10005000CE6ACF6ACD809E6A9D809F80F28CF28EA0
:10006000F28C2050000AD8B451EF00F02050010A61
:10007000D8B45FEF00F02050020AD8B46BEF00F064
:100080002050030AD8B479EF00F02050040AD8B405
:100090008BEF00F02050050AD8B496EF00F031EF56
:1000A00000F089808992899689948D9082B05BEF67
:1000B00000F031EF00F0010E206E31EF00F089808A
:1000C0008992899689948D9081B031EF00F0020E6B
:1000D000206E31EF00F089908982899689948D9005
:1000E000A6EC00F082A231EF00F0030E206E31EF9B
:1000F00000F08990898289968994CFEC00F08D80F8
:1001000000000000000082A431EF00F08D90040E8A
:10011000206E31EF00F089908992898689948D90C4
:10012000C8EC00F0050E206E31EF00F08990899246
:10013000899689848D90B7EC00F082A2A2EF00F03E
:1001400031EF00F0000E206E31EF00F0F10E8C6EFA
:10015000CFEC00F0F40E8C6ECFEC00F0F20E8C6E53
:10016000CFEC00F0F80E8C6ECFEC00F01200080E11
:100170008C6ECFEC00F0020E8C6ECFEC00F0040E13
:100180008C6ECFEC00F0010E8C6ECFEC00F0120004
:10019000216A2150200AD8A4C9EF00F012001F0ED6
:1001A000406E4F0E416E00000000412ED3EF00F074
:0801B000402ED1EF00F0120017
:0801B800226ED8CF23F0E0CF46
:1001C00024F09EA0E6EF00F0212A9E9024C0E0FFDC
:0801D00023C0D8FF22501100EA
:020000040030CA
:0100000000FF
:010001000BF3
:0100020000FD
:0100030000FC
:0100050000FA
:010006008079
:0100080000F7
:0100090000F6
:01000A0000F5
:01000B0000F4
:01000C0000F3
:01000D0000F2
:00000001FF
