:020000040000FA
:040000000EEF00F00F
:020004000000FA
:020006001000E8
:04000800A5EF00F070
:0400180003EF00F002
:04001C000F0EC16E94
:1000200093809480948294849590929092929294EA
:10003000929689908992899489968C90000E206E70
:10004000D08ECD6ACD88CD8ACE6ACF6ACD809E6AA9
:100050009D809F80F28CF28EF28C2050000AD8B4E2
:100060004DEF00F02050010AD8B45BEF00F02050B3
:10007000020AD8B467EF00F02050030AD8B473EF37
:1000800000F02050040AD8B483EF00F02050050A95
:10009000D8B48EEF00F02DEF00F089808992899618
:1000A00089948C9082B257EF00F02DEF00F0010E92
:1000B000206E2DEF00F089808992899689948C902A
:1000C00081B02DEF00F0020E206E2DEF00F0899030
:1000D0008982899689948C9082A42DEF00F0030E7A
:1000E000206E2DEF00F089908982899689948C800A
:1000F00000000000000082A02DEF00F08C90040EA4
:10010000206E2DEF00F089908992898689948C90D9
:100110009EEC00F0050E206E2DEF00F08990899284
:10012000899689848C9082A498EF00F02DEF00F0DE
:10013000000E206E2DEF00F012001200216A2150F7
:0A014000200AD8A49FEF00F012007F
:06014A00226ED8CF23F065
:10015000E0CF24F09EA0AFEF00F0212A9E9024C0B3
:0A016000E0FF23C0D8FF2250110079
:020000040030CA
:0100000000FF
:010001000BF3
:0100020000FD
:0100030000FC
:0100050000FA
:010006008079
:0100080000F7
:0100090000F6
:01000A0000F5
:01000B0000F4
:01000C0000F3
:01000D0000F2
:00000001FF
