:020000040000FA
:040000000EEF00F00F
:020004000000FA
:020006001000E8
:04000800E3EF00F032
:0400180003EF00F002
:04001C00720ED36E1F
:100020000F0EC16E938094809482948496909290E7
:100030009292929492969298959095929594959684
:1000400089908992899489968D90000E206ED08E29
:10005000CD6ACD88CD8ACE6ACF6ACD809E6A9D80DA
:100060009F80F28CF28EF28C2050000AD8B454EFAC
:1000700000F02050010AD8B463EF00F02050020ACB
:10008000D8B470EF00F02050030AD8B47FEF00F02E
:100090002050040AD8B490EF00F02050050AD8B4DC
:1000A0009CEF00F034EF00F0898089928994899860
:1000B00089968D9082B05FEF00F034EF00F0010E72
:1000C000206E34EF00F0899089828994899889960E
:1000D0008D9081B034EF00F0020E206E34EF00F00E
:1000E000899089928984899889968D90ADEC00F0E9
:1000F00082A234EF00F0030E206E34EF00F08990FE
:1001000089928984899889968DA0CFEC00F08D80A2
:1001100082A434EF00F08D90040E206E34EF00F0D6
:10012000899089928994898889968D90CFEC00F086
:10013000050E206E34EF00F0899089928994899899
:1001400089868D90BEEC00F082A2A9EF00F034EF1A
:1001500000F0000E206E34EF00F0F10E8C6ED6EC45
:1001600000F0F40E8C6ED6EC00F0F20E8C6ED6EC35
:1001700000F0F80E8C6ED6EC00F01200080E8C6EBB
:10018000D6EC00F0020E8C6ED6EC00F0040E8C6EF5
:10019000D6EC00F0010E8C6ED6EC00F01200216A55
:1001A0002150160AD8A4D0EF00F012001F0E406EA6
:1001B0004F0E416E00000000412EDAEF00F0402E9D
:0601C000D8EF00F0120070
:0A01C600226ED8CF23F0E0CF24F022
:1001D0009EA0EDEF00F0212A9E9024C0E0FF23C0F6
:0601E000D8FF22501100BF
:020000040030CA
:0100000000FF
:0100010008F6
:0100020000FD
:0100030000FC
:0100050000FA
:010006008079
:0100080000F7
:0100090000F6
:01000A0000F5
:01000B0000F4
:01000C0000F3
:01000D0000F2
:00000001FF
